:100000000C944C030C9484030C9484030C9484038C
:100010000C9484030C9484030C9484030C94840344
:100020000C9484030C9484030C9493260C944F2614
:100030000C9490270C9484030C9484030C948403F4
:100040000C9484030C9484030C9484030C94840314
:100050000C9484030C946C270C9484030C948403F8
:100060000C9484030C9484030C9484030C948403F4
:100070000C9484030C9484030C9484030C948403E4
:100080000C9484030C9484030C9484030C948403D4
:100090000C9484030C9484030C9484030C948403C4
:1000A0000C9484030C9484030C94840305010902CA
:1000B000A10185020901A1000509190129081500FE
:1000C0002501950875018102050109300931158165
:1000D000257F95027508810609381581257F9501D0
:1000E00075088106050C0A38021581257F95017572
:1000F000088106C0C005010980A101850319012AF4
:10010000B700150126B700950175108100C0050CD8
:100110000901A101850419012AA002150126A002E6
:10012000950175108100C005010906A1018506052C
:100130000719E029E71500250195087501810205D9
:1001400007190029EF1500250195F07501810205B9
:10015000081901290595057501910295017503910D
:1001600001C00660FF0961A1010962150026FF00B8
:100170009520750881020963150026FF00952075FA
:10018000089102C005010906A101050719E029E748
:1001900015002501950875018102950175088101F9
:1001A0000507190029FF150026FF0095067508812F
:1001B000000508190129059505750191029501753C
:1001C000039101C0000000000000000000000000DA
:1001D000000000000000000000000000000000001F
:1001E00000000000000000007E0F00D4FFFFFFC7EA
:1001F0000000007800000000000000002A2B28000A
:1002000000000000000000000000000000000029C5
:10021000000000002C1E3420212224342627252E05
:10022000362D3738271E1F2021222324252633333D
:10023000362E37381F0405060708090A0B0C0D0E69
:100240000F101112131415161718191A1B1C1D2F35
:100250003130232D350405060708090A0B0C0D0E55
:100260000F101112131415161718191A1B1C1D2F15
:100270003130354C0001010101010101010102028F
:100280000202020202020203030303030303030444
:10029000040404040404050505050506060606060F
:1002A000070707070708080808090909090A0A0AC9
:1002B0000B0B0B0C0C0C0D0D0D0E0E0E0F0F0F106B
:1002C00010111111121213131414151516161717F5
:1002D000181819191A1A1B1B1C1D1D1E1E1F202061
:1002E000212222232424252626272829292A2B2CAB
:1002F0002D2D2E2F30313232333435363738393ACE
:100300003B3C3D3E3F404142434445464748494AC5
:100310004C4D4E4F50515354555658595A5B5D5E93
:100320005F616264656668696B6C6D6F707273752E
:1003300077787A7B7D7E8082838587888A8C8E8F92
:1003400091939596989A9C9EA0A2A3A5A7A9ABADC0
:10035000AFB1B3B5B7BABCBEC0C2C4C6C9CBCDCFAE
:10036000D1D4D6D8DBDDDFE2E4E7E9EBEEF0F3F55C
:10037000F8FAFDFF29001E001F00200021002200C6
:10038000230024002500260027002D002E002A002F
:1003900000004C002B0014001A0008001500170084
:1003A00000001C0018000C00120013002F00300089
:1003B00031004B00390004001600070009000A0054
:1003C00000000B000D000E000F0033003400280069
:1003D00000004E00E1001D001B0006001900050092
:1003E000000011001000360037003800E500000062
:1003F00052000000E0000000E2002C0000000000BD
:1004000001512C0000000000E600A900AA005000E5
:1004100051004F0035023A003B003C003D003E00D9
:100420003F00400041004200430044004500005CA2
:1004300000000100010001000100010001000100B5
:10044000000001000100010001000100C75CC85C60
:10045000C25C010001000100010001000100010077
:1004600000000100010001000100C55CC65C805F66
:100470000000460001000100010001000100010030
:10048000000001000100010001000100815F000087
:10049000C95C000001000000010001000000000034
:1004A0000100010000000000C35C01000100010028
:1004B000CA5C01000100010001000100010001000F
:1004C0000100010001000100010001000100010024
:1004D0000000010001000100010001000100010015
:1004E0000000010001000100010001000100010005
:1004F00001000100010001000100010001000100F4
:1005000000000100010001000100010001000100E4
:1005100000000100010001000100010001000100D4
:1005200000000100010001000100010001000000C5
:1005300001000000010000000100010000000000B7
:1005400001000100000000000100010001000100A5
:100550000100010001000100010001000100010093
:100560000100010001000100010001000100010083
:100570000000010001000100010001000100010074
:100580000000010001000100010001000100010064
:100590000100010001000100010001000100010053
:1005A0000000010001000100010001000100010044
:1005B0000000010001000100010001000100010034
:1005C0000000010001000100010001000100000025
:1005D0000100000001000000010001000000000017
:1005E0000100010000000000010001000100010005
:1005F0000100010009025B00030100A0FA090400E8
:10060000000103010100092111010001224000073E
:10061000058103080001090401000203000000092C
:100620002111010001222200070582032000010799
:100630000503032000010904020001030000000972
:10064000211101000122B6000705840320000112D8
:1006500001000200000008EDEC6336010001020019
:10066000011A03460061006E006300790041006CCE
:100670000069006300650036003600000014034680
:100680000061006E0063007900740065006300681B
:10069000000000040309040011241FBECFEFDAE0BC
:1006A000DEBFCDBF04B603FE18C080915C059091FB
:1006B0005D05A0915E05B0915F058730904BA74026
:1006C000B04B59F410925C0510925D0510925E05D6
:1006D00010925F05E0E0F8E3099525E0A0ECB2E0B8
:1006E00001C01D92AC35B207E1F712E0A0E0B1E025
:1006F000EAEDFCE502C005900D92A03CB107D9F7E8
:100700000E94B7270C94242E0C940000909155055C
:10071000937061F081110BC0946090935505109215
:1007200018018091540581608093540508958E319D
:1007300010F09467F2CF880F880F982BEECF90912E
:100740005505937059F08093560560935705409373
:100750005805809154058160809354050895E8ED13
:10076000F0E080818E7F80831092E2001092DA00A8
:100770001092E100A0EEB0E08C9181608C938081BA
:100780008F77808319BCA7EDB0E08C918E7F8C931E
:1007900080818F7E808310921E0508952091E40051
:1007A0003091E50095E6A9012091EC00822F81703F
:1007B00020FF06C08091E80080FF06C080E0089519
:1007C0002091E80022FD1AC080914305882389F01A
:1007D000853089F08091EB0085FD0FC02091E40009
:1007E0003091E50042175307F9F29150E1F684E0A9
:1007F000089582E0089583E0089581E00895EF92DE
:10080000FF920F931F93CF937C018B010E94CE0325
:10081000C82F811117C08091E80085FD0BC0809121
:10082000E8008E778093E8000E94CE03882399F336
:10083000C82F08C0F70181917F018093F10001501A
:10084000110949F78C2FCF911F910F91FF90EF90D5
:1008500008958091450587FF13C08091E80082FFCD
:1008600006C08091E8008B778093E80004C08091F7
:1008700043058111F2CF0895809143058823D9F370
:100880008091E80080FFF8CF8091E8008E77ECCF70
:10089000982F9093E900242F762F50E0891731F09C
:1008A0007091EC002091ED005091F00021FD07C007
:1008B0009F5F973071F78093E90081E00895309150
:1008C000EB003E7F3093EB003091ED003D7F3093A5
:1008D000ED003091EB0031603093EB007093EC0051
:1008E0002093ED005093F0002091EE0027FDE0CF23
:1008F00080E00895CF92DF92EF92FF920F931F93C3
:10090000CF93DF93C8EDD0E088818F7E8883E7EDB9
:10091000F0E080818160808384E082BF81E0809309
:100920001E0588818E7F888302EE10E0F801108218
:100930001092DA0081EEC82ED12CF6011082888147
:100940008F77888388818068888388818F7D88837A
:1009500019BC109243051092440510924205109262
:10096000410590EEE92EF12CF70180818B7F808389
:1009700088818160888342E060E080E00E944804D2
:10098000F60180818E7F8083F80180818160808381
:10099000808188608083F70180818E7F8083888159
:1009A00080618883DF91CF911F910F91FF90EF902D
:1009B000DF90CF900895FC0180914B0590914C05FC
:1009C00086179707A0F06115710529F49091E8004A
:1009D0009E779093E80090E06115710551F49111B4
:1009E00008C08091E80082FF34C080E00895BC0117
:1009F000F2CF809143058823C1F18530C1F1809108
:100A0000E80083FD30C08091E80082FDEACF80914C
:100A1000E80080FFE1CF8091F3002091F200382FB1
:100A20006115710519F02830310558F091E0283032
:100A3000310509F090E02091E8002E772093E8003E
:100A4000CBCF81918093F100615071092F5F3F4FAF
:100A5000E7CF80914305882341F0853041F08091B4
:100A6000E80083FFBECF81E0089582E0089583E02F
:100A7000089508958091200508959C014FB7F8943A
:100A80008091150590911605A0911705B091180554
:100A90004FBF821B930B08952FB7F89480911505D3
:100AA00090911605A0911705B09118052FBF0895D4
:100AB00020911205309113052817390771F0909392
:100AC000130580931205E0911005F0911105309700
:100AD00021F00084F185E02D0994089520910E0500
:100AE00030910F052817390771F090930F05809307
:100AF0000E05E0911005F0911105309721F0068068
:100B0000F781E02D09940895E0911005F091110509
:100B1000309721F00190F081E02D099480E0089554
:100B2000FA01811101C0FB010994E8E1F4E081833D
:100B300060834283339695E0EE30F907C1F708955C
:100B4000FC01EE0FFF1FE80FF91FE85EFB4F61830A
:100B5000408322830895E5E5F5E0248130E1231BFD
:100B600008F420E02483809154058160809354052B
:100B70000895E5E5F5E0248130E1230F08F42FEF37
:100B80002483809154058160809354050895E5E5A0
:100B9000F5E0438120E1421B08F440E0818162815D
:100BA00090E00C949F03E5E5F5E0438120E1420FDE
:100BB00008F44FEF8181628190E00C949F03E5E59A
:100BC000F5E0628120E1621B08F460E081814381ED
:100BD00090E00C949F03E5E5F5E0628120E1620F6F
:100BE00008F46FEF8181438190E00C949F03E5E569
:100BF000F5E08181438162818850990B0C949F03B9
:100C0000E5E5F5E0818190E04381628108960C94EE
:100C10009F038091550586958695815009F48DE155
:100C20000C94860380915505869586958F5F8E314D
:100C300008F081E00C948603E42FF0E0EE0FFF1F34
:100C4000E753FE4F9081921B97FD9195292F38E134
:100C5000239F212D1124620F08950F931F9310E0FD
:100C6000F801EE0FFF1FE753FE4F9081995697FD55
:100C70009195000F111FF801E653FE4F00810052BD
:100C8000110B2003F001219FF00D112408E310E067
:100C9000091B110997FD139540039001419F300DE9
:100CA0001124E20FF31F9F01220F331F2E0F3F1F4E
:100CB00037FF02C021583F4F220F232F221F330B33
:100CC000620F1F910F9108950F931F93522F10E001
:100CD000F801EE0FFF1FE653FE4FA081A052BB0BA1
:100CE0009D015203F001539FF00D1124000F111FBD
:100CF000D801A753BE4F0C910956110B4003900128
:100D0000419F300D11242E0F3F1F37FF02C0215C81
:100D10003F4F96E0359527959A95E1F7620F1F9121
:100D20000F9108950F931F93522F10E0F801EE0FCB
:100D3000FF1FE653FE4FA081A052BB0B9D01520343
:100D4000F001539FF00D1124000F111FD801A7537C
:100D5000BE4F0C910956110B40039001419F300D7D
:100D600011242E0F3F1F37FF02C021583F4F220F83
:100D7000232F221F330B620F1F910F910895EF92C3
:100D80000F93972F23E0029FB0011124759567956B
:100D90006E0D792F0F91EF900895322F50E0FA01E8
:100DA000EE0FFF1FE653FE4F9081905297FD9195F5
:100DB000440F551FFA01E753FE4F2081231B330BCD
:100DC000290F311D97FD3A95620F0895E42FF0E049
:100DD000EE0FFF1FE653FE4F6081621B0895E42F64
:100DE000F0E0EE0FFF1FE753FE4F6081621B089596
:100DF000622F0895E42FF0E0EE0FFF1FE753FE4F40
:100E0000408134EE439F412D1124E82FF0E050E063
:100E1000445E5F4FDA01A21BB1099D01B7FF03C019
:100E200031952195310993E0220F331F9A95E1F70F
:100E3000AF01421B530B9A0157FD20E0582F259F0D
:100E4000212D1124822F0895E42FF0E0EE0FFF1FD3
:100E5000E753FE4F408134EE439F412D1124E72F8D
:100E6000F0E050E0445E5F4FDA01A21BB1099D0142
:100E7000B7FF03C031952195310993E0220F331F4D
:100E80009A95E1F7AF01421B530B9A0157FD20E001
:100E9000279F212D1124722F08950C9495050C94F1
:100EA000A005FC019B01009729F480E077FF2BC08F
:100EB00080E80895AC0197FF04C044275527481BDC
:100EC000590BB901640F751F37FD10C0241B350B7A
:100ED000C901A5E0880F991FAA95E1F70E94D62CB9
:100EE00080E2861BF7FF0FC081950895CB0165E076
:100EF000880F991F6A95E1F7BA01621B730B0E9474
:100F0000D62C80E6EECF0895EF920F93CF93DF9328
:100F1000D72FC82FC9010E19BA010E945107602F9F
:100F2000681B7D2F8C2FDF91CF910F91EF9008954B
:100F30000F93CF93DF93D72FC82FC901BA010E9417
:100F40005107682F600F7D2F8C2FDF91CF910F916C
:100F50000895EF920F931F93CF93DF93D62FC72F50
:100F6000182FC9010E19010FBA010E945107081B61
:100F7000202F219F212D1124822F6D2F7C2FDF9177
:100F8000CF911F910F91EF900895EF920F931F93C0
:100F9000CF93DF93D62F172FC82FC9010E19070F34
:100FA000BA010E945107702F781B719F712D112477
:100FB0006D2F8C2FDF91CF911F910F91EF9008959E
:100FC0000F931F93CF93DF93D62FC72F182FC901ED
:100FD000212F201B022FBA010E945107982F990F31
:100FE000990F891B800F282F219F212D1124822FDB
:100FF0006D2F7C2FDF91CF911F910F9108950F934B
:101000001F93CF93DF93D62F172FC82FC901272FF8
:10101000201B022FBA010E945107982F990F990F98
:10102000782F791B700F719F712D11246D2F8C2FCC
:10103000DF91CF911F910F910895E82F86FDE095E4
:101040002E2F2F7086FD2F5FE695E695E695E670CC
:10105000F0E0EE59FE4F9181929F902D212D1124A9
:1010600092959F702295207F922B2081920F87FD71
:10107000919580E8890F08950F931F93CF93DF9385
:101080008B01D82FC42F822F0E941D08EC2FF0E077
:10109000EE0FFF1FE753FE4F90819058890F87FD99
:1010A0008195880F682F2CE0629F612D1124600FBD
:1010B000712F8D2FDF91CF911F910F910895409146
:1010C00010015091110125E038E0429FC001439F7B
:1010D000900D529F900D1124875E994C90931101B1
:1010E00080931001890F0895AC018230910508F4B6
:1010F00008959FEF413E8EE1580740F49A0195E034
:10110000369527959A95E1F798E0920F61E0E62FE2
:10111000E90FFF27FF1F9F0135952795822F229FFB
:10112000F001239FF00DF00D11244E175F0738F4E6
:101130009FEF920F961758F78FEF860F08952F3F66
:10114000E9F361E0620FF6CF0F93CF93DF93D72FD0
:10115000C82F47FD419584E390E0841B910947FD2A
:101160009395889FB001899F700D700D1124229F67
:10117000C001239F900D900D1124860F971F0E9490
:101180007408982F990F890F682F600F7D2F8C2F6F
:10119000DF91CF910F91089530E020E0869F212DBF
:1011A000969F200D311D1124C9010895AF92BF9261
:1011B000CF92DF92FF920F931F93CF93DF93362F3F
:1011C000472FE82FF0E0EC58FD4F71110FC0E4916C
:1011D0008E2F2E2F6E2F722FDF91CF911F910F9197
:1011E000FF90DF90CF90BF90AF900895C72FD0E0D1
:1011F0002491F22E022F10E056E0659FC0011124C9
:10120000EFEFF0E0BF010E94C22C832F90E0880F27
:10121000991F35E5369FD001379FB00D11248A1BE9
:101220009B0B982F990F980F6F01CC1ADD0AC09E67
:10123000D001C19EB00DD09EB00D11248B2F499FBF
:10124000A0011124452F55276F01C41AD50AC09E4D
:10125000A001C19E500DD09E500D11245F01A91A0E
:10126000B108AC9E6001AD9ED00CBC9ED00C112488
:10127000CD2CDD24EC19FD09E09FE001E19FD00DAC
:10128000F09FD00D1124ED2F62307105A1F050F4C4
:101290006115710509F49ECF6130710581F0EB2F66
:1012A000852F98CF6430710569F080F06630710544
:1012B00009F490CFF4CFE22F2B2F8D2F8BCFE22F7D
:1012C000252F88CFEB2F822F2D2F84CF2B2F8F2DE3
:1012D000E52F80CFDF92EF92FF920F931F93CF9372
:1012E000DF937C01C091150181E1C89FC02D1124BD
:1012F00011E11C0F012F133508F002E5609159052B
:101300006695669521E0620F08F46FEF80914D05B8
:1013100090914E050E94CC08D82ED0E0C01760F006
:1013200081E0123508F080E0DF91CF911F910F919D
:10133000FF90EF90DF900895FE01E359FD4F80810B
:1013400090911601892391F060915605709157058F
:10135000809158052D2D4C2FF70109950E94D60834
:10136000462F282F672FCE010E944F072196D6CFF8
:101370009F92AF92BF92CF92DF92EF92FF920F9324
:101380001F93CF93DF936C01C091150181E1C89F3A
:10139000C02D112411E11C0FB12E133510F032E5D0
:1013A000B32E609159056695669580914D05909193
:1013B0004E050E94CC08F82E80E48F0D0E941D0877
:1013C00090E8A92EA80E8F2D0E941D0820E8922ECD
:1013D000980ED0E0CB1580F081E0123508F080E067
:1013E000DF91CF911F910F91FF90EF90DF90CF9001
:1013F000BF90AF909F900895FE01E359FD4F80810B
:10140000909116018923A1F06091560570915705BE
:1014100080915805EF2C0C2F292D4A2DF6010995A6
:101420000E94D608462F282F672FCE010E944F0713
:101430002196D0CF7F928F929F92AF92BF92CF9200
:10144000DF92EF92FF920F931F93CF93DF935C0194
:10145000C091150181E1C89FC02D112411E11C0F1D
:10146000F12E133510F032E5F32E60915905669593
:1014700080914D0590914E050E94CC08782ED0E0C9
:10148000CF1590F081E0123508F080E0DF91CF9128
:101490001F910F91FF90EF90DF90CF90BF90AF9092
:1014A0009F908F907F900895FE01E359FD4F8081BA
:1014B000909116018923C9F1CE01880F991F875891
:1014C0009E4FFC01E05BFF4F2081422F4956550B98
:1014D0006A018F5A9F4FFC018081282F2052330BC5
:1014E0004901449F9001459F300D300D1124889C87
:1014F000C001899C900D900D1124820F931F0E94B2
:101500007408082F60915605709157058091580511
:10151000E72C9401A601F50109950E94D608462FF3
:10152000282F672FCE010E944F072196A9CFCF9277
:10153000DF92EF92FF920F931F93CF93DF937C0183
:10154000C091150181E1C89FC02D112411E11C0F2C
:10155000D12E133510F032E5D32E609159056695E2
:1015600080914D0590914E050E94CC08C82ED0E088
:10157000CD1568F081E0123508F080E0DF91CF9161
:101580001F910F91FF90EF90DF90CF900895FE0193
:10159000E359FD4F808190911601892311F1CE010D
:1015A000880F991F87589E4FFC01EF5AFF4F2081EB
:1015B0002052330B805B9F4FFC0140814956550BF5
:1015C0006091560570915705809158050C2DF701D3
:1015D00009950E94D608462F282F672FCE010E941A
:1015E0004F072196C5CF0E944C059C0190918A031C
:1015F00080918B03982B21F03093870320938603EF
:1016000090918C0380918D03982B21F0309385036A
:1016100020938403E0911005F0911105309749F073
:1016200082E0809388030480F581E02D88E893E0D0
:101630000994089540918A03803F59F480918B0367
:1016400087FF0DC010928B0341110BC010928203D3
:1016500008C0813F81F480918B0318169CF34423CA
:1016600081F080918C0390918D03892B09F05AC0F1
:10167000109281030895823F49F447FFF0CF109202
:101680008A0380918B038111ECCFE0CF833F19F463
:101690001416ACF3E4CF90918C03893F29F419160A
:1016A000F4F610928C03DBCF8A3F19F497FFD7CF63
:1016B000F8CF90918D038B3F29F497FFD0CF1092F4
:1016C0008D03CDCF8C3F19F41916CCF3C8CF9CE015
:1016D000980F953090F4845F990B21E030E0B901C8
:1016E00002C0660F771F8A95E2F7CB018095909133
:1016F0008903892380938903B2CF8D3F31F4809190
:1017000083038E7F80938303AACF8E3F21F4809141
:1017100083038D7FF7CF8F3F09F0A1CF80918303A3
:101720008B7FF0CF08958091830380FD16C081FDEB
:1017300016C082FD16C0809181038823A1F08832F3
:1017400080F428E0829FC001112468E270E00E94CA
:10175000D62C862F672B39F0089582E0089584E017
:10176000089588E0089581E008958091830380FDC5
:1017700014C081FD14C082FD16C0809182038823AD
:1017800081F08E3180F420E5829FC00111246EE14A
:1017900070E00E94D62C862F089584E1089588E297
:1017A000089588E0089580E50895803F31F40E940F
:1017B000B50B819580938B030895813F19F40E94A6
:1017C000B50BF8CF823F31F40E94B50B8195809321
:1017D0008A030895833F19F40E94B50BF8CF893F1F
:1017E00029F40E94930B80938C0308958A3F21F47F
:1017F0000E94930B8195F7CF8B3F31F40E94930B9E
:10180000819580938D0308958C3F19F40E94930B6A
:10181000F8CF9CE0980F953070F4845F990B21E02D
:1018200030E001C0220F8A95EAF780918903822B6C
:101830008093890308958D3F31F480918303816003
:101840008093830308958E3F21F480918303826007
:10185000F7CF8F3FB9F7809183038460F1CF80E0A9
:101860000895F894E82FE295EF70F0E031A1282F69
:101870002F7081E090E001C0880F2A95EAF7982F39
:101880009095932391A392A1892B82A37894089594
:101890009091190592FF06C0282F28712830F9F47D
:1018A000877F846093FF06C0282F28712831F1F4C8
:1018B000877E846120911A0520FF06C0382F387179
:1018C0003830D9F4877F816021FF06C0282F287126
:1018D0002831D1F4877E816194FD877E0895282F79
:1018E00024712430F9F68B7F8860DCCF282F247197
:1018F000243101F78B7E8861DDCF382F3171313093
:1019000019F78E7F8860E0CF282F2171213121F7D0
:101910008E7E8861E1CFCF93DF93EC018238910511
:10192000A9F1D8F58133910509F496C048F58932BB
:10193000910509F48AC08A9709F495C0C11521E57B
:10194000D20708F0BCC0C11530E5D30708F014C1B8
:10195000C83ED10508F09CC0C03ED10560F5C83A2C
:10196000D10508F087C0C53AD10508F0FDC0C130E7
:10197000D10509F12097F9F0C430D105E0F440C059
:101980008533910509F45AC0C997C1F680911905AC
:10199000837089F0C0EED0E00EC0833E910599F1CE
:1019A00070F4803E910501F1823E910539F68091F7
:1019B000190582FD21C0CE01DF91CF910895863EA9
:1019C000910561F1873E910571F1843E910509F021
:1019D000B5CF80911A0581FFEECF80911905C7EE32
:1019E000D0E084FD0DC0E7CF8091190580FD12C1C4
:1019F00090911A0590FFDFCFC3EED0E084FFDBCFDC
:101A0000D0E0C0E0D8CF8091190582FD06C1909149
:101A10001A0590FDBFCF84FFCECFF2CF809119057C
:101A200083FDDDCFC8CF8091190583FDF9C090916A
:101A30001A0591FFF0CFC4EED0E0BDCF809119051B
:101A400085FFB9CFC9E2D0E0B6CF8091190585FFF7
:101A5000B2CFC5E3D0E0AFCF8091190586FFABCF01
:101A6000CAE2D0E0A8CF8091190586FFA4CFC1E3D8
:101A7000D0E0A1CFCF3BD10518F6C85AD0E0CC0FAB
:101A8000DD1FC15EDE4F0990D881C02DD46493CF95
:101A9000C11540E2D40758F4C11581E0D80708F019
:101AA0008ACFC03FD10508F4ABCFD06584CFC11534
:101AB00090E4D90708F4A4CFDF70D06A7CCFC115B9
:101AC00025E5D20700F5C11534E5D30708F08AC033
:101AD000C11543E5D40708F071C0C11582E5D807E8
:101AE00008F467C0CE018370992721E030E002C07E
:101AF000220F331F8A95E2F7C695C69580E2C89FEC
:101B0000E001112452C0C11599E5D907A8F4C11507
:101B100028E5D20708F06BC0C11536E5D30708F0F9
:101B20006FCF8C2F0E94480CC82FD0E0DC2FCC2721
:101B3000CC27DF71D0623FCFC1154AE5D40708F446
:101B40005BC0CE0190568115904208F059CF8D2F81
:101B50008F710E94480C90E0982F882788279F71EA
:101B60009C012C2BE901E6CFC55AD0E0C45EDE4FC4
:101B7000C881D0E0D0641FCFCE01E4E09695879570
:101B8000EA95E1F783702C2F26952695237040E285
:101B9000249F90011124382B8C2F8370C1E0D0E05A
:101BA00002C0CC0FDD1F8A95E2F7C22BD32BDC6875
:101BB00002CFDC2FCC27C16FD06AFDCECE0183705F
:101BC000992721E030E002C0220F331F8A95E2F707
:101BD000C695C69590E2C99FE0011124C22BD32B74
:101BE000DA68E9CEDC2FCC27C46FD06AE4CEDC2FD4
:101BF000CC27C06FD06ADFCE8C2F8F700E94480C2C
:101C000034E0D695C7953A95E1F7CF709C2FEC015B
:101C1000D069D1CEC9E3D0E0CECEC2EED0E0CBCEFB
:101C2000C6EED0E0C8CE80915C03811110925C03B7
:101C30000895809590915B03982390935B0308959A
:101C4000909114019923D1F09091190597FF16C036
:101C5000E82FE695E695E695EE31E0F4F0E0EE53F8
:101C6000FD4F282F277081E090E001C0880F2A9552
:101C7000EAF780959281892382830895E4ECF2E06B
:101C80009191891303C0DF0111971C9292E0EA3C05
:101C9000F907B1F70895909114019923C1F090913B
:101CA000190597FF14C0E82FE695E695E695EE3105
:101CB000F8F4F0E0EE53FD4F877021E030E001C012
:101CC000220F8A95EAF78281822B82830895A4EC01
:101CD000B2E0EFEF90E02D91821751F0EF3F19F451
:101CE000211101C0E92F9F5F9630A9F7EF3F09F45A
:101CF00008950E2E000CFF0BEE53FD4FE6CF8091A2
:101D0000380390910703981301C008958F5F87707F
:101D1000FACF9295907F890F982F97708695869528
:101D2000869523E0829FF0011124ED51FD4F50E094
:101D300040E080E0219130E0092E02C036952795E1
:101D40000A94E2F721703327042E01C0220F0A946F
:101D5000EAF7822B4F5F5F4F4330510559F70895E3
:101D60009295907F890F982F977041E001C0440FA2
:101D70009A95EAF786958695869593E0899FF00176
:101D80001124ED51FD4F30E020E070E05191DF0172
:101D90001197CB01022E02C0969587950A94E2F71F
:101DA000817081958527842385278C932F5F3F4FF2
:101DB0002330310559F7089580931B0570931D0555
:101DC00060931C05809143058430F9F48093E90009
:101DD0008FEF9091E800815095FD06C095ED9A95A2
:101DE000F1F700008111F5CF8091E80085FF0DC06B
:101DF00050E040E063E070E08BE195E00E94FF037B
:101E00008091E8008E778093E8000895BC0184E01B
:101E10000C94DC0EBC0183E00C94DC0E9C0184E08D
:101E20008093E9009FEF8091E800915085FD06C006
:101E300085ED8A95F1F700009111F5CF8091E800CA
:101E400085FF0CC050E040E066E070E0C9010E94F0
:101E5000FF038091E8008E778093E8000895CF9388
:101E6000DF93EC01809114018823B1F18091190571
:101E700087FF32C060E284E08093E9008FEF9091A9
:101E8000E800815095FD06C095ED9A95F1F70000A8
:101E90008111F5CF8091E80085FF1BC0809114016E
:101EA00070E050E040E0811104C050E040E068E0A4
:101EB00070E0CE010E94FF038091E8008E7780934E
:101EC000E80080E2FE01A1E2B5E001900D928A9562
:101ED000E1F7DF91CF91089568E081E0CDCF81E017
:101EE0008093E00080E28093D8001092C9008FE1D7
:101EF0009EE40197F1F700C0000087E090EBDC0161
:101F000080935C0590935D05A0935E05B0935F059B
:101F100088E19CE00FB6F894A895809360000FBE0E
:101F200090936000FFCF209A35B13E7F25B12160AC
:101F30004FB7F89488E194E0FC015191CF0168E03B
:101F400025B9000000C057FF35B9550F000000C08B
:101F500000C000C035B900C06A9591F7F5E08E3039
:101F60009F0751F74FBF8FE594E00197F1F700C04D
:101F700000000895CF93DF93C7EAD2E060E0CE017E
:101F80000E949D2D2196C11584E0D807B9F7DF91F5
:101F9000CF9108956F927F928F929F92AF92BF924E
:101FA000CF92DF92EF92FF920F931F93CF93DF9325
:101FB00084E7C82E83E0D82E07EE10E0E801C05A6F
:101FC000D10936011CC0F50185909490692DC70197
:101FD0000E949D2D682DC70101960E949D2D82E0D3
:101FE000A80EB11C82E0E80EF11CCE15DF0559F7F2
:101FF00080E2680E711CA0960C171D0731F07E015F
:1020000080E2E81AF1085301DECF00561F4F80EA44
:10201000C80ED11C073683E0180781F6DF91CF91F7
:102020001F910F91FF90EF90DF90CF90BF90AF90F6
:102030009F908F907F906F900895CF93C82F6FEFF0
:10204000811162E283E290E00E949D2D6FEFC11149
:1020500065E084E290E00E949D2D6FEFC11168E081
:1020600085E290E0CF910C949D2D80E00E941D10A0
:1020700060E086E290E00E949D2D0E94CA0F0E94BF
:10208000BA0F81E00C941D10CF93C92F682F84E004
:1020900090E00E949D2D6C2F82E290E0CF910C94F5
:1020A0009D2D0F931F93CF93DF9320E2629FE0015A
:1020B000112450E0440F551FC40FD51F30EA839FF1
:1020C000C00DD11D1124CE0187960E94792D082FB5
:1020D00010E0102F0027CE0188960E94792D9801DC
:1020E000282BC901DF91CF911F910F910895462FA1
:1020F000843038F4753028F4603118F4672F0C946C
:10210000511090E080E00895CF92DF92FF920F93FC
:102110001F93CF93DF936C0100915B0580915D036A
:10212000082BC7E0D0E010E0FC2EC8010C2E02C046
:10213000959587950A94E2F780FD0CC02197A0F74A
:10214000F12C8F2DDF91CF911F910F91FF90DF9098
:10215000CF900895B6018C2F0E9477100E948B0CAF
:10216000019761F3EECFCF93DF93EC010E948410CF
:10217000BE010E947710DF91CF910C948B0CFC0173
:10218000808191810E94B31092959F70963091F05A
:1021900058F4925F9F70923058F4803F19F030F4F9
:1021A000883E30F481E008959A5FF4CF843FD1F304
:1021B00080E00895883EB0F3813FD1F7F3CF83E20A
:1021C00090E00E94792D823289F484E290E00E94AE
:1021D000792D853059F485E290E00E94792D91E0C7
:1021E000883009F090E0892F8170089580E0FCCF5D
:1021F000CF9384E090E00E94792DC82F82E290E096
:102200000E94792D982F8C2FCF9108951F93CF93F3
:10221000DF93EC01FC01E359FD4F80816823C9F095
:102220000E94432D182F0E94432D8F77782F20E88E
:10223000720F08F47FEF612F809158050E94D60835
:10224000462F282F672FCE01DF91CF911F910C943D
:102250004F07DF91CF911F910895DF92EF92FF9288
:102260000F931F93CF93DF938C01FC01E359FD4F34
:102270008081682381F1D0905705D0915805C09195
:102280005605EC2EF12C0E94432D282FC7018C54AB
:102290009F4F68E671E00E94D62C8E199F0997FD2A
:1022A0000396959587959595879523706C2F289F14
:1022B000600D11247D2D8D2F0E94D608462F282FCA
:1022C000672FC801DF91CF911F910F91FF90EF9081
:1022D000DF900C944F07DF91CF911F910F91FF90EA
:1022E000EF90DF9008955F926F927F928F929F920E
:1022F000AF92BF92CF92DF92EF92FF920F931F9314
:10230000CF93DF93182F80911301811323C09091F5
:10231000550593702091120130E081E09217130669
:1023200009F480E081708093170180915A059091A3
:102330001601981739F08093160140E060E080E0C4
:102340000E944D071E3160F4E12FF0E0EA5DF14D8F
:102350000C94EA2C81E0E6CF80911701811124C012
:10236000C0E0809115018F5F80931501C1110CC0F1
:1023700082E08093180180911701811105C011112D
:1023800003C083E080931801DF91CF911F910F91DB
:10239000FF90EF90DF90CF90BF90AF909F908F9085
:1023A0007F906F905F90089540E060E080E00E9431
:1023B0004D07D6CFC091150181E1C89FC02D1124D2
:1023C00001E10C0FF02E033510F022E5F22E6091A2
:1023D000560570915705809158050E94D608E62E43
:1023E000D72EC82ED0E0CF1528F0C1E0023508F472
:1023F000B8CFB6CFFE01E359FD4F80819091160111
:10240000892331F02C2D4E2D6D2DCE010E944F07CA
:102410002196E9CFC091150181E1C89FC02D1124FB
:1024200001E10C0FF02E033510F092E5F92ED0905B
:102430005705E0905805D09156056D2F7D2D8E2DB6
:102440000E94D608C62EB72EA82E609159056D0F92
:102450007D2D8E2D0E94D608E62ED72E982ED0E008
:10246000CF1518F6FE01E359FD4F908180911601BA
:10247000892359F0292D4E2D6D2D90FD03C02A2D55
:102480004C2D6B2DCE010E944F072196E9CFC091B4
:10249000150181E1C89FC02D112401E10C0FE02E30
:1024A000033510F082E5E82ED0905705C09058050E
:1024B00020915905D0E4FD2E3F2D329F312D11245E
:1024C000F32ED0E0CE1508F090CFFE01E359FD4F7A
:1024D0008081909116018923B9F0FE01EE0FFF1F54
:1024E000E653FE4F808182958F70609156058F9DD7
:1024F000600D11247D2D8C2D0E94D608462F282F8B
:10250000672FCE010E944F072196DCCFC0911501A5
:1025100081E1C89FC02D112401E10C0FE02E03358D
:1025200010F0A2E5EA2ED0905705C09058052091F2
:102530005905F0E4FF2E3F2D329F312D1124F32E4B
:10254000D0E0CE1508F051CFFE01E359FD4F808158
:10255000909116018923D9F0FE01EE0FFF1FE7537A
:10256000FE4F6081F69EB0011124E5E075956795F8
:10257000EA95E1F780915605680F7D2D8C2D0E941C
:10258000D608462F282F672FCE010E944F0721968D
:10259000D8CFC091150181E1C89FC02D112401E160
:1025A0000C0FF02E033510F042E5F42EE0905605A6
:1025B000D0915705D090580560915905669566955C
:1025C000669580914D0590914E050E94CC080E9421
:1025D0001D08805887FD8195880F282F3D2D239F4A
:1025E000212D1124822F6E2D7D2F0E94D608E62EDC
:1025F000D72EC82ED0E0CF1508F0F7CEFE01E35954
:10260000FD4F808190911601892331F02C2D4E2DA4
:102610006D2DCE010E944F072196EDCF84E297E009
:102620000E946A0907C08AEF96E0FACF8FEF97E021
:102630000E94970AC82F95CE80EE97E0F9CF85ECDF
:1026400097E00E941A0AF6CF89EA97E0FACF88EF5E
:1026500096E0E6CF8FEE96E0E3CF86EE96E0E0CF11
:102660008DEC96E0DDCF8FEB96E0EBCF84EA98E03F
:10267000DFCF88E997E0DCCF84E897E0E2CF82E91A
:1026800096E00E94B809D6CF84E696E0FACF8DE2B4
:1026900096E0F7CFC0911701C1111EC06091590596
:1026A00020E1620F08F46FEF80914D0590914E0587
:1026B0000E94CC086AE070E00E94C22C892B09F0CD
:1026C0004FCE0E94432D62E570E00E94D62C6091AF
:1026D00016010E942D1145CEC091150181E1C89FC0
:1026E000C02D112401E10C0F802F033508F082E585
:1026F000D0E0E82EF12CCE15DF050CF076CE6091FF
:102700001601CE010E942D112196F5CFC09117011F
:10271000C1111EC06091590520E1620F08F46FEFEE
:1027200080914D0590914E050E94CC0865E070E0C7
:102730000E94C22C892B09F013CE0E94432D62E522
:1027400070E00E94D62C609116010E94061109CEFD
:10275000C091150181E1C89FC02D112401E10C0F2A
:10276000802F033508F082E5D0E0E82EF12CCE155D
:10277000DF050CF03ACE60911601CE010E940611E1
:102780002196F5CFC091150181E1C89FC02D11247C
:1027900001E10C0FF02E033510F032E5F32ED0904E
:1027A0005705E0905805D0915605609159056695FA
:1027B0006695669580914D0590914E050E94CC08D6
:1027C0000E941D08805887FD8195880F682F2CE096
:1027D000629F612D11246D0F7D2D8E2D0E94D608D4
:1027E000E62ED72EC82ED0E0CF1508F0FECDFE0184
:1027F000E359FD4F808190911601892331F02C2DF2
:102800004E2D6D2DCE010E944F072196EDCF8CE30A
:1028100098E006CF8CE196E003CF40918E03509173
:102820008F03609190037091910380914D05909179
:102830004E05A0914F05B091500584179507A60746
:10284000B70708F48DCD0E945F08082F0E945F082B
:1028500092E5891BF0F7890FC82FD0E0FE01E359FC
:10286000FD4F809116019081892309F40FC120E06A
:1028700040E060E001FD13C00E945F08082F0E9445
:102880005F08782F76952FE7720F08F47FEF602F9F
:10289000809158050E94D608462F282F672FCE0119
:1028A0000E944F072091590530E1230F08F42FEFC4
:1028B00060E1822F90E00E94CC08BC0184EF91E09F
:1028C0000E94C22C80914D0590914E05A0914F051C
:1028D000B0915005860F971FA11DB11D80938E03E7
:1028E00090938F03A0939003B093910339CD4091BF
:1028F000E2035091E3036091E4037091E50380915A
:102900004D0590914E05A0914F05B091500584174B
:102910009507A607B70708F423CD809117018823F0
:1029200029F040E060E080E00E944D07609156058C
:1029300070915705809158050E94D608062F772E72
:10294000682EC2E9D3E099E7E92E91E0F92E2FE055
:10295000A22EB12C47016E01512CF40181914F013F
:1029600090E0F6012081222309F480C0262D402F1B
:10297000672D0E944F07F601818181936F01539467
:10298000F7E05F12EACF65018FE0582E96012E56D0
:102990003C4F4901F601E758FE4F808190E0F90174
:1029A0002081222309F466C0262D402F672D0E9426
:1029B0004F07F40131978081F40180835A94F1E04C
:1029C000CF1AD10828E05212E1CFF701808590E0BC
:1029D0002885222309F452C0262D402F672D0E94FE
:1029E0004F07F701878190E02F81222309F44AC025
:1029F000262D402F672D0E944F070E945F0883708D
:102A000091E009F090E09F8398876096F0E1EF0EE7
:102A1000F11C20E1A20EB11C3FE5A316B10409F0A0
:102A200099CF2091590530E1230F08F42FEF60E191
:102A3000822F90E00E94CC08BC0188EB9BE00E94B2
:102A4000C22C80914D0590914E05A0914F05B091FB
:102A50005005860F971FA11DB11D8093E20390932F
:102A6000E303A093E403B093E5037ACC20E040E0D5
:102A700060E07FCF20E040E060E099CF20E040E0E0
:102A800060E0ADCF20E040E060E0B5CFC1E069CCD0
:102A90008F929F92AF92BF92CF92DF92EF92FF926E
:102AA0000F931F93CF93DF9380910F0490911004A5
:102AB000A0911104B09112042FB7F89480901505DD
:102AC00090901605A0901705B09018052FBF7501BE
:102AD0006401C81AD90AEA0AFB0A2FB7F894409190
:102AE00015055091160560911705709118052FBFB7
:102AF00040930F04509310046093110470931204D8
:102B00001091E603E6EEF3E0C12FD0E00197AF4F5E
:102B1000BF4F88199909AA09BB091D1328C0C09382
:102B2000E60380911704C0E0811108C0809155052B
:102B3000C82FC37019F0C82FC695C695809118018B
:102B40008130B1F1882331F1823009F483C08330C0
:102B500009F48BC0DF91CF911F910F91FF90EF90FF
:102B6000DF90CF90BF90AF909F908F900895218D70
:102B7000328D4901B12CA12C88159905AA05BB05F8
:102B800020F4C150DF5F3296C8CF2C0D3D1D328F2F
:102B9000218FF8CF1092150140934D0550934E05AB
:102BA00060934F057093500581E080931801D2CF58
:102BB0008C2F0E947311CC2369F20E94840581FF3F
:102BC00007C02FEF4FEF6FEF8BE290E00E944F07AF
:102BD000C091150181E1C89FC02D1124DFEEDC0FEB
:102BE000C33508F0C2E58091130480FD1BC08091BD
:102BF000130481FFAFCF02E410E0ED2EF12CD0E002
:102C00000E151F0548F0C017D10730F020E040E056
:102C100060E0C8010E944F070F5F1F4F023511058A
:102C200079F798CF10E000E0ED2EF12CCC2ED12CCE
:102C30000E151F0548F0C016D10630F020E040E028
:102C400060E0C8010E944F070F5F1F4F023411055B
:102C500079F7CDCFC0931301809155058370809390
:102C600012010E94930F83E0A0CF80915405882326
:102C700051F046E050E06CE170E085E595E00E949F
:102C80008D2D1092540540914D0550914E05609147
:102C90004F05709150052FB7F894809115059091CC
:102CA0001605A0911705B09118052FBF841B950B31
:102CB000A60BB70B4097A105B10508F44BCF1092B6
:102CC000180148CFE5E5F5E085E38083809119019F
:102CD00090911A01A0911B0181839283A3838FE7B6
:102CE00084838FEF858346E050E06CE170E0CF0194
:102CF0000E948D2D1092540508954F925F926F920D
:102D00007F928F929F92AF92BF92CF92DF92EF927B
:102D1000FF920F931F93CF93DF93CDB7DEB72A9720
:102D20000FB6F894DEBF0FBECDBF8E010F5F1F4FF1
:102D30008AE0D8011D928A95E9F72DE4E22E21E080
:102D4000F22E3DE5632E31E0732ECC24C394D12CBA
:102D500088248394912C62E6A62E61E0B62EF701BA
:102D600081917F018F3F09F449C0F894E82FE295E3
:102D7000EF70F0E021A18F70A40102C0440F551F35
:102D80008A95E2F7CA01922F982B91A392A1809580
:102D9000892382A3789400C09DE5492E91E0592EA5
:102DA000F801A60140955095D2016D912D018081C9
:102DB00091816F3F09F47BC0262F22952F7030E060
:102DC000D90190962C9130E06F7002C0359527950F
:102DD0006A95E2F720FD6BC08C299D299183808341
:102DE0003296A414B50401F7F701319780818F3F23
:102DF00011F00E94310CB0EABA95F1F7CC0CDD1C51
:102E00006E147F0409F0ABCF4AE050E0B80181E6D0
:102E100093E00E94532DFF24F394009709F4F12CC2
:102E2000892B09F447C08AE0F801A1E6B3E00190DC
:102E30000D928A95E1F781E0809360030E944C0532
:102E400090935F0380935E0380915E0390915F0394
:102E50000E943D05059790F1809161039091620376
:102E60009093780380937703809163039091640338
:102E700090937A0380937903809165039091660320
:102E800090937C0380937B03809167039091680308
:102E900090937E0380937D038091690390916A03F0
:102EA0009093800380937F031092600307C0842374
:102EB000952394CF809160038111C6CF8F2D2A96E0
:102EC0000FB6F894DEBF0FBECDBFDF91CF911F913B
:102ED0000F91FF90EF90DF90CF90BF90AF909F90B9
:102EE0008F907F906F905F904F90089580915B03DB
:102EF00090915A03892B8093C20290915C0399238D
:102F0000A1F0892B8093C202809114018823D9F10A
:102F10008091190587FF37C08EE1E4ECF2E090E084
:102F2000815098F591110E94130E40E250E06AE33F
:102F300073E082EC92E00E94532D892B59F180E2DC
:102F4000E2ECF2E0AAE3B3E001900D928A95E1F79A
:102F5000E0911005F09111053097E1F08091140196
:102F6000882359F08091190587FF07C08091C2021C
:102F70008093C30286E08093C2020280F381E02D39
:102F800082EC92E0099486E0C8CF2191222341F29D
:102F90009F5FC6CF089590E080E00E946E0590E0AC
:102FA00080E00E94580510925A030E94761786E02E
:102FB000E8E8F3E0DF011D928A95E9F710928203B9
:102FC00010928103109283030C94F30A80935B05A3
:102FD0000C94CB1780915B05982F9670963019F45E
:102FE00088600C94E617877FFCCF21E030E001C0B9
:102FF000220F8A95EAF7209580915B0582230C9435
:10300000E617909139038095892380933903282FFF
:10301000277091F4282F082E000C330B92171306FB
:1030200059F090911A0592FD07C085958595859573
:103030000E94F51710923903089590911A0592FB9A
:10304000222720F9281769F080FB92F990931A053E
:103050008091190590911A050E94441082E00C9409
:103060000118089521E030E001C0220F8A95EAF7A7
:1030700080915B05822B0C94E61780935D030C9482
:10308000CB1710925B0380911401E4ECF2E08823EB
:1030900059F08091190587FF07C08EE1DF011D926D
:1030A0008A95E9F70C94CB1786E0F8CF1F93CF935E
:1030B000DF93CDB7DEB7AA970FB6F894DEBF0FBE89
:1030C000CDBF85E495E02091F100DC012D93CD0189
:1030D000B5E08D349B07B9F780914605833009F43C
:1030E00072C0B8F4813009F449C0823009F4B3C029
:1030F0008091E80083FF8BC2809145059091460541
:103100009A3008F084C2E92FF0E0EC5BF14D0C94AA
:10311000EA2C8A3009F48EC08B3009F471C08930F2
:1031200039F780914505813219F7809149059091D1
:103130004A05009711F00297D9F68091E800877F41
:103140008093E8008091E80082FF38C09091F300FE
:103150008091F200029731F48091F100813011F0FA
:10316000863021F48091F100809320058091E80061
:103170008B778093E8000E942904BACF809145059F
:10318000813A09F0B5CF8091E800877F8093E8000D
:103190008091490590914A05892B61F460E281E2B2
:1031A00095E070E00E94DB048091E8008B778093CB
:1031B000E8009ECF60E090E080E0F3CF809143058F
:1031C0008111C0CF95CF80914505813A09F090CF0C
:1031D0008091490590914A05892B09F089CF80910A
:1031E000E800877F8093E8008091E80080FFFCCFB3
:1031F000809114018093F1008091E8008E77B9CF1F
:1032000080914505813209F073CF809149059091F5
:103210004A05892B09F06CCF8091E800877F809365
:10322000E8000E94290480914705809314010E94C0
:1032300041185ECF80914505813209F059CF8091C8
:10324000E800877F8093E8000E9429048091480568
:1032500080931F054DCF80914505813A09F048CFF5
:103260008091E800877F8093E8008091E80080FFEC
:10327000FCCF80911F05BECF803899F0823809F0CD
:10328000C6C1809149058F70873008F0C0C1809316
:10329000E9008091EB0085FB882780F91092E90016
:1032A00006C08091410590914205911182609091F4
:1032B000E800977F9093E8008093F1001092F1006E
:1032C0008091E8008E779FC1882309F48DC18230F8
:1032D00009F09DC180914705811190C180914905F8
:1032E0008F702FEF280F263008F091C18093E900EE
:1032F0002091EB0020FF82C1933031F48091EB00EC
:1033000080628093EB007AC19091EB009061909382
:10331000EB0021E030E001C0220F8A95EAF720930C
:10332000EA001092EA008091EB008860EACF8111F8
:103330006EC1109147051F778091E3008078812B43
:103340008093E3008091E800877F8093E8000E94EB
:1033500029048091E80080FFFCCF8091E300806821
:103360008093E30082E0111183E0809343054FC115
:103370008058823008F04BC12091470530914805B4
:103380002C3DE3E03E07A1F583E08A838AE289834E
:103390004FB7F894DE01139620E03EE051E2E32FB0
:1033A000F0E050935700E49120FF03C0E295EF70E6
:1033B0003F5FEF708E2F90E0EA30C0F0C7968D939C
:1033C0009D932F5F243159F74FBF8091E800877F8D
:1033D0008093E8006AE270E0CE0101960E94DB046F
:1033E0008091E8008B778093E80011C1C096E7CF09
:1033F0008091490590914A05432F55274330510547
:1034000009F44AC078F54130510509F47AC08BE5DA
:1034100090E0E4EFF5E04230510509F0F8C020916A
:10342000E800277F2093E80020914B0530914C0560
:103430008217930708F49C0140E02115310509F03B
:1034400065C0411163C08091E80082FDC9CF8091C1
:103450004305882329F2853019F28091E80083FF23
:10346000F2CFBECF4132510509F43CC04232510582
:1034700009F0CDC08330910508F0C9C0FC01EE0F02
:10348000FF1FE359FE4F0190F081E02D86599E4FBA
:10349000DC018C9190E01AC0332721303105D1F046
:1034A0002115310561F02230310509F0B0C0E1E6A7
:1034B000F6E0E4918E2F90E0E1E6F6E007C0E3E964
:1034C000F6E0E4918E2F90E0E3E9F6E0009709F44E
:1034D0009EC0A5CFEDE7F6E0E4918E2F90E0EDE7FA
:1034E000F6E0F4CF8330910508F091C0880F991F62
:1034F000FC01ED58FE4F0190F081E02D89E090E055
:103500008ECF82E190E0EFE4F6E089CF8091430531
:10351000882309F465CF853009F462CF8091E800F3
:1035200083FD5ECF8091E80082FD8DCF8091E80021
:1035300080FF83CF9091F3008091F2002115310537
:1035400019F08830910550F041E0089709F040E00B
:103550008091E8008E778093E8006FCF449140938C
:10356000F1003196215031090196E8CF803809F0F9
:103570004EC08091E800877F8093E80080914405E9
:103580008093F1009DCE811142C010914705123009
:10359000F0F58091E800877F8093E8001093440560
:1035A0000E942904112311F084E005C08091E300FA
:1035B00087FDFACF81E08093430542E061EC81E032
:1035C0000E94480442E261EC84E00E94480442E226
:1035D00061EC82E00E94480442E260EC83E00E94D9
:1035E00048048091430513C080914705813079F4E8
:1035F00081E0933009F080E0809342051092E90069
:103600008091E800877F8093E8000E9429048091E0
:10361000E80083FF0AC08091E800877F8093E8007C
:103620008091EB0080628093EB00AA960FB6F8942D
:10363000DEBF0FBECDBFDF91CF911F9108958823CC
:1036400021F00E94190E0C9476170895882339F002
:1036500090915B03982B90935B030C9476170895DD
:10366000882309F452C0823871F40E94840581FFD6
:103670004CC089E30E944B0E0E94761789E30E949A
:10368000200E0C947617833859F40E94840580FF2D
:103690003CC083E50E944B0E0E94761783E5EFCF76
:1036A000843859F40E94840582FF2FC087E40E9469
:1036B0004B0E0E94761787E4E2CF9CEF980F913A69
:1036C000F0F290E2980F983050F4877091E001C0CA
:1036D000990F8A95EAF7892F0E94190ED2CF9BE5A0
:1036E000980F933020F490E080E00C946E0598E5FC
:1036F000980F973120F490E080E00C945805803FBB
:1037000020F00E941A0B0C94F30A0895CF93C82F4F
:10371000882309F4AEC08238C1F40E94840581FD7B
:10372000A8C089E30E944B0E0E9476172FEF81EE0E
:1037300094E0215080409040E1F700C0000089E310
:103740000E94200ECF910C9476178338A1F40E942A
:10375000840580FD8EC083E50E944B0E0E94761783
:103760002FEF81EE94E0215080409040E1F700C0BF
:10377000000083E5E5CF8438A1F40E94840582FD32
:1037800078C087E40E944B0E0E9476172FEF81EEDF
:1037900094E0215080409040E1F700C0000087E4B1
:1037A000CFCF8CEF8C0F813A88F58091140188235C
:1037B00001F18091190587FF1CC0EC2FE695E69575
:1037C000E695F0E0EE53FD4F828190E04C2F47707C
:1037D00021E030E002C0220F331F4A95E2F7822336
:1037E0009323892B79F08C2F0E94200E0E9476174C
:1037F00009C0E4ECF2E08191C817A9F322E0EA3CA9
:10380000F207C9F78C2F0E944B0E9CCF80E28C0FE1
:10381000883068F4C77021E030E001C0220FCA95FB
:10382000EAF780915B03822B80935B038BCFEBE500
:10383000EC0FE33040F4F0E0E45EFE4F808190E076
:10384000CF910C946E05E8E5EC0FE73150F4F0E011
:10385000EE0FFF1FE15EFE4F80819181CF910C94AE
:103860005805C03F30F08C2F0E94D50BCF910C949F
:10387000F30ACF9108951F93CF93DF93182FD0E0D1
:10388000C0E0893311F4C0E5D0E0812F0E94861B8F
:10389000209731F4812FDF91CF911F910C94301B31
:1038A0008FE99FE00197F1F700C000002197F0CF6A
:1038B0000F931F93CF93DF93C62FD42F022FFC01BA
:1038C00082818823A1F0609353050E944C05909358
:1038D000520580935105C77081E001C0880FCA95D9
:1038E000EAF7DF91CF911F910F910C94261B8091E5
:1038F0005305681335C080915105909152050E947F
:103900003D05883C910560F510E21D0FCD17B9F01B
:1039100080E28C0F883040F4C77081E001C0880FCE
:10392000CA95EAF70E941F1B183048F481E09D2FCA
:10393000977001C0880F9A95EAF70E94261B802F86
:103940000E943B1C183098F4D77081E001C0880FAA
:10395000DA95EAF7DF91CF911F910F910C941F1B1D
:10396000C77081E001C0880FCA95EAF7F3CFDF91F5
:10397000CF911F910F91089590E080E00E94872DD4
:10398000893E9E4F11F40C94DF1080E0089569EE9B
:103990007EEF90E080E00E94BB2D60E082E090E04E
:1039A0000E949D2D60E083E090E00E949D2D10928A
:1039B0005D0360E084E090E00E949D2D60E082E283
:1039C00090E00E949D2D60E085E090E00E949D2D9A
:1039D00060E086E090E00E949D2D6FEF87E090E030
:1039E0000E949D2D40E050E0BA0188E090E00E94E6
:1039F000AF2D60E08DE090E00E949D2D40E050E012
:103A0000BA0188E190E00E94AF2D60E087E190E08C
:103A10000E949D2D40E050E0BA018CE190E00E94B0
:103A2000AF2D70E060E080E290E00E94BB2D40E0AE
:103A300050E0BA0188E190E00E94AF2D80E00E9442
:103A40001D100E94351040E050E0BA018FE090E078
:103A50000E94AF2D40E050E0BA0183E190E00C9469
:103A6000AF2D3F924F925F926F927F928F929F9273
:103A7000AF92BF92CF92DF92EF92FF920F931F937C
:103A8000CF93DF9300D000D00F92CDB7DEB78C017B
:103A9000FC0183819481892B31F08081918189237C
:103AA0008F3F09F0A0C50F900F900F900F900F90CF
:103AB000DF91CF911F910F91FF90EF90DF90CF900A
:103AC000BF90AF909F908F907F906F905F904F903E
:103AD0003F9008950E948410F82E682F89819A8162
:103AE0000E94B00E69817A818F2D0E9477107C012F
:103AF000F8018281882309F469C5970122513F4565
:103B00002031310508F029C58FEF93E00E94792D0F
:103B1000FEEEEF0E57EA852E52E0952E8823A1F196
:103B200080913903877009F4BECFF8018281882320
:103B300009F4B9CF80911A0582FDB5CF82E00F90CC
:103B40000F900F900F900F90DF91CF911F910F91D9
:103B5000FF90EF90DF90CF90BF90AF909F908F90AD
:103B60007F906F905F904F903F900C94011881145C
:103B700024E09206A9F2C4010E94792D811101C0AE
:103B8000EA943FEF831A930AE110F1CF1C821B8263
:103B9000442443944AE0342E74018FEFE81AF80A63
:103BA000C4010E94792D89831A82882309F4B8CF31
:103BB0009FEF980F933000F58A83498292E0890E37
:103BC000911CC7010E94792D8B83882309F4A8CF0B
:103BD000FE0131967F01F70120812223E9F2213095
:103BE00009F049C091818281913041F4F2E0EF0EF9
:103BF000F11C0E943B1C09C04701EACF923049F4F6
:103C000022E0E20EF11C0E94861B3FEFE31AF30A4A
:103C1000E2CF933031F432E0E30EF11C0E94301B0E
:103C2000F4CF943021F08FEFE81AF80AEECF92E04B
:103C3000E90EF11C30E020E0B7016F5F7F4FF70124
:103C400041818053990B8A30910550F02150310900
:103C5000E0F28FE99FE00197F1F700C00000F6CF96
:103C6000329EF001339EF00D11249C012E0F3F1F58
:103C7000842F7B01E1CFE22FF0E0EC50FE4F549017
:103C8000822F86958695869590E0FC01EC51FE4F3B
:103C900064902770712C022E02C0759467940A9468
:103CA000E2F7E1E06E227724FC01EC52FE4FA49093
:103CB000B12C022E02C0B594A7940A94E2F7F1E069
:103CC000AF22BB24FC01EC53FE4FC490D12C02C0A8
:103CD000D594C7942A95E2F721E0C222DD2461142D
:103CE000710419F081EE0E94861BA114B10419F031
:103CF00086EE0E94861B852D0E943B1CAB2819F086
:103D000086EE0E94301B672819F081EE0E94301B5E
:103D1000CD2809F47ACF8CE26CCF81E00E94321872
:103D20000E94EA17FDCE81E00E94F517F9CF82E0EC
:103D3000F5CF882309F4F4CE90911304892F8E7F58
:103D400090FF8160809313044091130450911404F8
:103D5000609115047091160483E190E00E94AF2DEC
:103D6000DFCE882309F4DCCE90911304892F8D7F58
:103D700091FF8260E7CFF5EFEF16FCE5FF0609F44F
:103D800062C008F45CC027E245EE66EE36EFE3164B
:103D90003CE5F30609F416C4882309F435C41092EF
:103DA000530583E0E8168DE5F80608F053C09AEF56
:103DB000E9169CE5F90630F4C70182509C4544970A
:103DC00008F054C00E94F81090931A0580931905CA
:103DD00021E1E2162CE5F20609F435C108F0A1C094
:103DE00089E0E8168CE5F80609F41BC108F06AC002
:103DF000E5E0EE16ECE5FE0609F40BC108F04CC058
:103E000023E0E2162CE5F20609F4FBC008F0FDC041
:103E100082E0E8168CE5F80609F4EDC080911905FA
:103E200090911A050E9444100E94411879CE27E211
:103E300045EE65EEC7C326E241EE60EEC3C327E25E
:103E400045EE64EEBFC326E241EE62EEBBC328E25C
:103E500041E0EFCFE1E6EE16EDE5FE0609F4B2CF64
:103E6000F5EAEF16FDE5FF0609F4ACCF96E1E91699
:103E70009CE5F90609F044C480915B038A7A91E0DD
:103E800009F490E09093E202811107C189E20E9457
:103E90004B0E0E94761744CE80911905806297E000
:103EA000E9169CE5F90609F4A9C08091190580611D
:103EB000E8E0EE16ECE5FE0608F4A0C080911905D6
:103EC00080649CC0809119058B7FFDE0EF16FCE5B6
:103ED000FF0609F493C078F4809119058E7F3BE0CA
:103EE000E3163CE5F30609F489C008F4A0C080910C
:103EF00019058D7F83C0809119058F7E9FE0E9169B
:103F00009CE5F90609F47AC080911905877FE0E104
:103F1000EE16ECE5FE0608F471C0809119058F7D60
:103F20006DC0FDEFEF16FCE5FF0609F488C078F5DB
:103F300035E1E3163CE5F30609F48FC0A0F4809167
:103F40001905837F93E1E9169CE5F90609F456C04B
:103F500008F47DC00E94411890911905892F97FBA4
:103F600087F980584BC0FBEFEF16FCE5FF0609F41C
:103F700054C008F060C080911A0581603AEFE316E2
:103F80003CE5F30609F04ACF80931A0547CF81E05C
:103F9000E8168DE5F80609F46CC0C8F480911A059E
:103FA0008C7FEFEFEE16ECE5FE0671F380911A05BB
:103FB0008360E114FDE5FF0638F380911A05982F20
:103FC000909591708E7F892B90FB81F9DDCF21E652
:103FD000E2162DE5F20609F452C035EAE3163DE596
:103FE000F30609F453C082E0E8168DE5F80609F0FF
:103FF00015CF60E03FC0809119058160809319055D
:104000000DCF809119058260F9CF809119058460E8
:10401000F5CF809119058860F1CF80911A058260F3
:10402000B3CF0E944118809119058068E7CF809135
:1040300019058C60E3CF80911A058E7FA5CF809102
:104040001A058D7FA1CF809119058F7BD7CF0E9454
:104050004118809119058F77D1CF8091190582FB86
:10406000992790F921E0922790FB82F990FB83F940
:10407000C5CF61E08EE090E00E949D2DCFCE909163
:104080001905892F8F7E94FF8061B8CF9091190513
:10409000892F8E7F90FF8160B1CF85E3F8CE80912C
:1040A000E202811104C089E20E94200EF2CE85E373
:1040B000FBCF49E056E062E176E00E94900530CD0A
:1040C00042E156E069E076E0F8CF47EF55E060E086
:1040D00076E0F3CF40E056E067EF75E0EECF4FEDCE
:1040E00055E06BEE75E0E9CF4BEE55E06FED75E016
:1040F000E4CF43ED55E067EC75E0DFCF4BEA55E0E8
:1041000069EB75E0DACF49EB55E06BEA75E0D5CFA6
:1041100081E00E94860304CD8DE0FBCF0E94411810
:10412000EFEFF4E32CE0E150F0402040E1F700C075
:1041300000000E946F0F81E009C380E007C3C70140
:104140000E94890ED82E13C32F2D2F70C22E8F2DB3
:10415000807F19F0C29490EFC922DD20B9F0CC2005
:1041600069F080E28E0D883010F0811009C08091D6
:104170005B03C82AC0925B030E9476178E2D4DC048
:1041800080915A03C82AC0925A03F6CF8E2D0E94FE
:10419000301BCC2009F443C080E28E0D883010F033
:1041A000811004C08C2D0E94190E06C0C09480910D
:1041B0005A03C822C0925A030E94761730C03F2D7E
:1041C0003F70C32E8F2D807F803219F0C29480EF14
:1041D000C822882089F081E0881609F47FC0DD209C
:1041E00009F489C0BB2009F47FC0F801858180FFF4
:1041F000C5CF8F70858378C020911A0522FF4BC0F0
:10420000DD2009F442C0CC2039F080915B03C82A3C
:10421000C0925B030E94761780E00E94861B292DC6
:104220002850330B2430310510F40E948405AA2055
:1042300009F439CC8091390380FD35CCF801128224
:104240008595859585950E943218C8010E94311D7B
:10425000809139038595859585950F900F900F90E6
:104260000F900F90DF91CF911F910F91FF90EF90E2
:10427000DF90CF90BF90AF909F908F907F906F9086
:104280005F904F903F900C94F51780E00E94301B98
:10429000CC2029F287CFDD20A1F090915C038C2DFA
:1042A000892BB11003C00E94261BB9CFE1E0BE12DA
:1042B000FACF22FDB4CF981709F4B1CF80935C03F5
:1042C000AECFB11006C00E94130E8C2D0E941F1B92
:1042D000A6CFF1E0BF1609F4A2CFF5CFDD2031F073
:1042E00025E02B1508F49BCF8C2DDDCF34E03B155A
:1042F00008F495CFEACFBB2041F3F9E38F1209C050
:104300002FEF37EE83E0215030408040E1F700C0CE
:1043100000008E2D0E94301B82CF8F2D86958695B2
:10432000837061F0813009F07ACFC7019370D110AA
:1043300002C090E080E00E94580571CFC7019370E1
:10434000D11002C090E080E00E946E0568CF8E2DF3
:10435000DD2029F00E94D50B0E94F30A60CF0E9455
:104360001A0BFACF8F2D837091F5D11058CF4E2DA7
:10437000429546954770440F440F8E2D8F70042E42
:1043800001C0880F0A94EAF72E2D2071E4FE07C0C1
:104390002FE030E001C0220F4A95EAF720953F2D2B
:1043A000369536953370323069F050F440915D03A4
:1043B000313029F0822B84230E943D1830CF842B8A
:1043C000822BFACF282B80915D038227F5CF86952B
:1043D000DD2011F08F2D8170882309F420CF4E2D20
:1043E000429546954770440F440F8E2D8F70042ED2
:1043F00001C0880F0A94EAF72E2D2071E4FE07C051
:104400002FE030E001C0220F4A95EAF720953F2DBA
:10441000369536953370323069F050F440915B0533
:10442000313029F0822B84230E94E617F8CE842BAA
:10443000822BFACF282B80915B058227F5CF9F2D09
:104440009F70F92EDD2029F0892F0E9432188E2DC1
:104450002ACF8E2D0E941F1B8F2D0E94F517DFCEB5
:104460008E2DE2EF8E16B1F1E81570F0F0EF8F1699
:10447000D1F021EF821691F0DD2009F45EC0B11079
:104480007DCE8F2D8F712AC033EF831651F194EFBB
:104490008912F2CF80911A0582FF2FC08F2D8F7164
:1044A000DD20D9F21BC0DD2081F0E4E0EB1508F43B
:1044B000B6CE2F2D2F7181E090E001C0880F2A9594
:1044C000EAF790915B058927AFCFF5E0FB1508F47B
:1044D000A6CEEFCF8F2D8F71D110BFCF0E94321893
:1044E0009ECE80E0DD2009F49FCF9F2D9F7181E05B
:1044F00001C0880F9A95EAF797CFDD2099F02F2D0C
:104500002F71F22E822F0E94321880911A0582FD9F
:1045100007C038E0F39EC001112483608093390303
:104520008F2DDCCF81E00E94011881E08B1508F00F
:1045300076CE82E00E94011872CEBB2059F08933FA
:1045400009F0E7CE9FEFE7EEF3E09150E040F04056
:10455000E1F7DDCE8F2D8F7180CFF0E1EF16FFE513
:10456000FF0609F4DACB21E1E2162FE5F20609F4A1
:10457000DECB90E8E9169FE5F90609F4DACBE1E82D
:10458000EE16EFE5FE0609F4ECCBF3EFEF16FCE5D3
:10459000FF0609F450CC08F0EECB38EDE3163CE50D
:1045A000F30609F444CC99EDE9169CE5F90609F403
:1045B0004ECCE7EDEE16ECE5FE0609F0EDCB26E27B
:1045C00041EE61EEC8010E94581CAACA30E1E31610
:1045D0003FE5F30609F4A7CB91E1E9169FE5F9065B
:1045E00041F682E0A1CB85E0DE01119601900D92AB
:1045F0008A95E1F7F801228189819A8121116ACA9D
:104600000E94890EF82E6ECAF6E1EF16FCE5FF0651
:1046100009F445CD80915B0382722AECE2162CE509
:10462000F20609F466CDE0F595ECE9169CE5F9068D
:1046300009F44BCDE0F4F3ECEF16FCE5FF0609F4CA
:1046400038CD08F03DCD32ECE3163CE5F30609F039
:104650007FC08091550591E0892780935505109280
:1046600018018091540581608093540559CA97ECD4
:10467000E9169CE5F90609F432CD08F42BCDF8ECE7
:10468000EF16FCE5FF0609F42FCD47EC55E063ED8E
:1046900075E029ECE2162CE5F20609F40ECD58C0BF
:1046A0003FECE3163CE5F30609F436CDB0F4ECEC50
:1046B000EE16ECE5FE0609F426CD08F41FCD2DEC30
:1046C000E2162CE5F20609F423CD85E03EECE31674
:1046D0003CE5F30609F41DCD3BC086EDE8168CE5FC
:1046E000F80640F482E191EDE9169CE5F90608F43C
:1046F00010CD16CAEDE5EE16FE0609F411CA28C063
:10470000FAE5EF16FDE5FF0609F415CD68F4E114AE
:104710003CE5F30609F402CD8EEDE8168CE5F806CB
:10472000B9F40E94C71CFCC99BE5E9169DE5F90692
:1047300009F403CDECE5EE16EDE5FE0649F48091B3
:104740001A0582FB882780F991E089270E941D18AD
:10475000F8018281E080F180882309F4F0CCC70160
:104760000E948410D82E682FC7010E94B00EB70196
:104770008D2D0E9477100E948B0C7C01882EF801F1
:10478000D280B580B2943FE0B32280913903877024
:10479000C1F0AD2CDD20B1F08F2D807F803421F071
:1047A00080E28E0D883068F080911A0582FD09C084
:1047B00082E00E940118809139038770AA24A39493
:1047C0008111A12C9F2C92942FE09222FBE0F915ED
:1047D00008F425CDE92DF0E0E25BF14D0C94EA2CD4
:1047E0001F93CF93DF9380910603807FA9F480917C
:1047F0000303882389F080913803D09107036091E7
:10480000010370910203A0910403B0910503C62F28
:10481000C72316E0D81304C0DF91CF911F910895EC
:1048200090E0109711F0CF3F19F401968770F2CF06
:10483000189F9001199F300D1124F901E85FFC4F7A
:1048400041814713F2CF40814613EFCF428141119E
:10485000ECCF438154814A1B5B0B483C510528F740
:10486000809106038F70806180930603F901E35FF6
:10487000FC4F80818F708061808381E093E00E9493
:10488000311DDF91CF911F910C947F0EAF92BF929B
:10489000CF92DF92EF92FF920F931F93CF93DF930C
:1048A000CDB7DEB761970FB6F894DEBF0FBECDBFB0
:1048B0008C0185E0F801DE011D9601900D928A952C
:1048C000E1F7F801E28081E0A82E83E0B82E609144
:1048D0000403709105036115710509F432C19091CB
:1048E000010340910203892F84238F3F09F429C1DA
:1048F00020813181C380D480F0900303F601E61B50
:10490000F70BFF2009F4E8C080910603582F507F71
:10491000E83CF10508F0ABC0511177C0FE2C431301
:1049200021C092131FC0E1101DC08F708061809361
:104930000603C5010E94311D80910603F80185839D
:104940008F2D61960FB6F894DEBF0FBECDBFDF91FD
:10495000CF911F910F91FF90EF90DF90CF90BF907C
:10496000AF900895CD2829F0822F83238F3F09F03F
:1049700003C180E0F82FF170DF2E80FF3CC08091F2
:1049800038034091070356E0841315C02D873E87F6
:104990008D859E850E94B310292F22952F7022307D
:1049A000F0F0243018F59F70F1F0F8019581907FB8
:1049B000D1F4D12C1EC090E0589FF001599FF00D0A
:1049C0001124E85FFC4F6181361306C06081261315
:1049D00003C06281E6120FC001968770D5CF9F7029
:1049E00011F0882331F3805E883018F3C8010E94EB
:1049F000311DFD2CA5CFEE2009F4A2CF8091060336
:104A0000816080930603F12C9BCF431306C0921361
:104A100004C0F801EE2009F479C0C8010E94BF105B
:104A2000882309F1EE20F9F080910603803270F0BE
:104A3000209101033091020338872F831986DB868A
:104A4000CA868C87CE0107960E94311D86E0F80148
:104A5000A1E0B3E001900D928A95E1F70E94F02366
:104A6000FF24F3946DCFC8010E94311DF9CF51117D
:104A70000AC081E093E00E94311D86E0F5011192A9
:104A80008A95E9F7C0CF43130FC092130DC0E11010
:104A90000BC0F8018583C8010E94311D86E0F50135
:104AA00011928A95E9F74CCFC8010E94BF10882364
:104AB000D1F2EE20C1F280910603803238F22091CB
:104AC0000103309102033A8329831B82DD82CC8269
:104AD0008E83CE010196B8CFE83CF105F8F6FE2CA6
:104AE000EE2009F243131FC092131DC080910603EC
:104AF00080FD10C0982F907F69F0F8018583903F6A
:104B000031F0982F907F905F8F70892B8583C8013B
:104B10000E94311D86E0F801A1E0B3E001900D9202
:104B20008A95E1F70DCFC8010E94BF1081118ECF89
:104B300080910603816080930603C8010E94311DA5
:104B4000FFCEEE2009F48FCFC8010E94BF10F82ECF
:104B5000882309F488CF86E0F801A1E0B3E0019052
:104B60000D928A95E1F780910103909102030E94D2
:104B7000B3100E94F023E4CE81E08E25FBCE1F937C
:104B8000CF93DF93CDB7DEB767970FB6F894DEBF4C
:104B90000FBECDBF4B8B5C8B6D8B7E8B8F8B611172
:104BA00010925A031A8A198A85E0FE017396DE0173
:104BB0001D9601900D928A95E1F786E0FE013D96E3
:104BC000DE01179601900D928A95E1F7CE010796C6
:104BD0000E944624882389F016E080913803909142
:104BE0000703891349C067960FB6F894DEBF0FBE5E
:104BF000CDBFDF91CF911F91089586E0FE013796DA
:104C0000DE01119601900D928A95E1F78A859B85C8
:104C1000892B11F38F81988589238F3FE9F22091A9
:104C2000070330E0C9010196877099274091380346
:104C30004817190671F40E94411810920703109248
:104C4000380386E0E1E0F3E0DF011D928A95E9F7A1
:104C5000C3CF96E0929FD001939FB00D1124A85F1F
:104C6000BC4FFE01319601900D929A95E1F7809329
:104C700007030E947F0EB0CF819FC0011124885F7F
:104C80009C4F0E944624882309F4ADCF80913803BD
:104C900090E0019687709927809338039ECF1F92EA
:104CA0000F920FB60F9211242F933F934F935F9360
:104CB0006F937F938F939F93AF93BF93CF93DF9324
:104CC000EF93FF93D091E900DF708091EC00C82F43
:104CD000C17080FDC0E81092E9008091F000877FEC
:104CE0008093F00078940E9456181092E900809109
:104CF000F00088608093F000CD2BCF70C093E90066
:104D0000FF91EF91DF91CF91BF91AF919F918F91E3
:104D10007F916F915F914F913F912F910F900FBEB7
:104D20000F901F9018951F920F920FB60F9211249B
:104D30002F933F934F935F936F937F938F939F93A3
:104D4000AF93BF93EF93FF938091E10082FF09C07F
:104D50008091E20082FF05C08091E1008B7F80930B
:104D6000E1008091DA0080FF24C08091D80080FFAC
:104D700020C08091DA008E7F8093DA008091D90084
:104D800080FF9DC080E189BD82E189BD09B400FE3C
:104D9000FDCF81E08093430580911E05811109C0FC
:104DA0000E94AF030E947A048091E20084608093A5
:104DB000E2008091E10080FF17C08091E20080FF57
:104DC00013C08091E2008E7F8093E2008091E20028
:104DD00080618093E2008091D80080628093D80047
:104DE00019BC85E0809343058091E10084FF2BC0CE
:104DF0008091E20084FF27C080E189BD82E189BD06
:104E000089B5982F917080FFFBCF8091D8008F7D5E
:104E10008093D8008091E1008F7E8093E1008091A3
:104E2000E2008F7E8093E2008091E20081608093B7
:104E3000E20080914405882309F447C084E0809310
:104E40004305809143058091E10083FF27C0809155
:104E5000E20083FF23C08091E100877F8093E1001F
:104E600082E080934305109244058091E1008E7F9B
:104E70008093E1008091E2008E7F8093E200809138
:104E8000E20080618093E20042E060E080E00E9406
:104E900048048091F00088608093F000FF91EF91CA
:104EA000BF91AF919F918F917F916F915F914F9142
:104EB0003F912F910F900FBE0F901F90189519BC26
:104EC0001092430510921E0574CF8091E30087FD78
:104ED00093E090934305B5CF78941F921FB61F922D
:104EE00011248F939F93AF93BF9380911505909159
:104EF0001605A0911705B09118050196A11DB11DC9
:104F00008093150590931605A0931705B093180587
:104F1000BF91AF919F918F911F901FBE1F901895C9
:104F20001F921FB61F9211248F939F93AF93BF932D
:104F300080911405811113C080911505909116057B
:104F4000A0911705B09118054196A11DB11D809340
:104F5000150590931605A0931705B0931805BF91FA
:104F6000AF919F918F911F901FBE1F901895CDB745
:104F7000DEB7E2970FB6F894DEBF0FBECDBF84B7A1
:104F8000877F84BF0FB6F894A895809160008861F0
:104F900080936000109260000FBE80E890E00FB632
:104FA000F89480936100909361000FBE85B780688C
:104FB00085BF85B7806885BF8FE29CE09093C10272
:104FC0008093C0020E94AF030E947A048091E200A5
:104FD00084608093E2007894809143058823A1F057
:104FE0001091E9001F709091EC00892F817090FD65
:104FF00080E8182B1092E9008091E80083FD0E9460
:1050000056181F701093E90082E084BD93E095BDAF
:105010009AEF97BD80936E000E94DF10811102C04D
:105020000E9435100DE411E02DE5E22E21E0F22E74
:10503000D8018D918D018F3F11F00E94310CE01647
:10504000F106B1F70DE511E092E6E92E91E0F92EB7
:10505000F80181918F018F3F11F00E94310CE01611
:10506000F106B1F78AE0E7E7F3E0DF01282F1D92B0
:105070002A95E9F7E1E6F3E0DF011D928A95E9F769
:105080000E94BC1C811102C00E94C71C82E090E0FB
:105090000E94792D80936B030E94F81090931A055B
:1050A000809319050E947D16BFEFE6E7F1E0B1504D
:1050B000E040F040E1F700C000000E947D168091C2
:1050C000770380FF08C06FEF7FEF90E080E00E94E1
:1050D000BB2D0E946F0F83E090E00E94792D0E940B
:1050E0003D181092E6038FEF9FEF9093000480939A
:1050F000FF0390930204809301049093040480932F
:10510000030490930604809305049093080480930D
:10511000070490930A048093090490930C048093ED
:105120000B0490930E0480930D040E94BC1C81110B
:1051300004C00E94C71C0E94621646E050E06CE169
:1051400070E085E595E00E94692D109254058091EC
:1051500055058C7F11F40E946216809119058068B4
:10516000809319058091190590911A050E944410A9
:1051700083E190E00E94812D6093130470931404E6
:10518000809315049093160484E091E090931105A8
:1051900080931005FF24F39480914305853089F4B2
:1051A00000E4E02E83E0D82E00E112E18091430577
:1051B000853009F4DFC10E9441180E9484051092D5
:1051C00017040E947D16882359F08FB7F8944091F8
:1051D00015055091160560911705709118058FBF40
:1051E000E7E7F3E0F8ABEFA71CE6C12E13E0D12E02
:1051F00029E731E03EA72DA7E12C712CAFA5B8A976
:105200002D903D90B8ABAFA7F601808191818215BA
:10521000930509F497C09C01222533253AAB29ABAD
:105220008DA59EA59CA78BA7612CAA24A394B12C25
:1052300089A99AA98A219B21892B09F478C069A29E
:105240007AA281010A211B2181E00115110509F4CF
:1052500080E08BA30E944C058160782F9DA38CA3D6
:1052600049A15AA16BA18DA10E94BF25D6018D91A4
:105270009C9111978A259B258D939C93012B31F04E
:10528000EBA5FCA580818F3F09F0C6C1412C042D00
:1052900010E08091E603800F912F911D09976CF12A
:1052A000E8E08E2E912C801A910AB80169517C4F4A
:1052B000A40187EE93E00E94602DB80161517C4FFC
:1052C000A4018FEE93E00E94602DA401440F551FAE
:1052D000B801660F771F61507C4F8FEF93E00E94FB
:1052E000602DB80169507C4FA40187EF93E00E94C4
:1052F000602D88E084198093E6038091E60390E0B6
:10530000A52DB0E09D01220F331F27533E4FAA0F5A
:10531000BB1FBD0166537E4F41E0480F941508F452
:105320007FC18093E603E394BBE0BE1548F163942C
:10533000AA0CBB1CEBA5FCA53196FCA7EBA7F0E1E2
:105340006F1276CF739422E0C20ED11C8DA59EA55C
:1053500040969EA78DA795E0791250CFE11010C01E
:105360008FEF8EA38FA318A60E944C058160782F23
:105370009AA789A74EA15FA168A58AA50E94BF250B
:105380000E94481586E0E8E8F3E0DE0111960190FE
:105390000D928A95E1F7E0908A03D0908B031091EB
:1053A0008C0300918D0310928A0310928B0310924C
:1053B0008C0310928D038E2D8D2909F448C08091A5
:1053C0008603909187030E943D059C019091820382
:1053D000992309F4D2C225313105C8F19F3F19F054
:1053E0009F5F90938203EE2059F00E94B50B9FEFD0
:1053F0001E140CF491E0899F802D112480938A0360
:10540000DD2059F00E94B50B9FEF1D140CF491E0C4
:10541000899F802D112480938B0330918A0333233D
:10542000B1F020918B03222391F045EB3403C001AE
:105430001124992309F409C190938A0345EB2403AD
:1054400090011124332309F403C130938B03812F7E
:10545000802B09F448C080918403909185030E94B9
:105460003D059C0190918103992309F481C2213566
:105470003105C8F19F3F19F09F5F9093810311237D
:1054800059F00E94930B9FEF11160CF491E0899F45
:10549000802D112480938C03002359F00E94930BDC
:1054A0009FEF10160CF491E0899F802D11248093BA
:1054B0008D0330918C033323B1F020918D0322238F
:1054C00091F045EB3403C0011124992309F4C3C0C2
:1054D00090938C0345EB240390011124332309F4AA
:1054E000BDC030938D0380918A0390918B03892BEB
:1054F00090918C03892B90918D03892B11F00E9440
:10550000F30A86E0FE013196A8E8B3E001900D921F
:105510008A95E1F70E948405909176038913809320
:10552000760380914305843009F036CE83E0809382
:10553000E9008091E80082FF2FCE8091E80090E0A2
:1055400085FF06C00E94CE03882309F48AC091E03B
:105550008091E8008B778093E800992309F41CCEB2
:10556000E981E150E33108F019C1F0E0E65AF14D6C
:105570000C94EA2C80914305843009F439C00E94D0
:1055800048158091170481110DC00E94731110926B
:105590001301809155058370809312010E94930F2F
:1055A000D092180121E0209317041092140588E18D
:1055B00090E00FB6F894A895809360000FBEE0923B
:1055C000600083B7817F846083BF83B7816083BFBE
:1055D0007894889583B78E7F83BF0FB6F894A8958B
:1055E00080916000886180936000109260000FBE1F
:1055F00080914205882309F4D9CD0E947D16E7E702
:10560000F3E081919191892B09F093C1A1E8B3E076
:10561000AE17BF07B1F7CACD582E4424439437CEF6
:1056200090E0FC01EA51FC4FD9015C915183DB0110
:105630005C915187518A880F991FFC01EA51FC4FF8
:10564000128E118E91E0842F67CEF0928A03F6CEEF
:10565000F0928B03FCCEF0928C033CCFF0928D0342
:1056600042CF00E210E0CE0101966C018091E8008B
:1056700085FD0AC08091E8008B778093E8000E9446
:10568000CE03882399F363CF8091F100D6018D93E7
:105690006D010150110951F75ACF1A8289E08B83AD
:1056A0001AC08A81823009F45AC18330D9F181301D
:1056B00009F074C02FB7F894609115057091160524
:1056C00080911705909118052FBF0E94F02C6B83D5
:1056D0007C838D839E8380914305843009F05CCD6B
:1056E0001091E9001F709091EC00892F817090FD5E
:1056F00080E8182B82E08093E9008091E80080FF29
:105700000DC050E040E060E270E0CE0101960E94E2
:10571000FF038091E8008E778093E8001F7010935C
:10572000E9003ACD809177039091780398278927F3
:1057300098279C838B838091790390917A03982793
:10574000892798279E838D8380917B0390917C038A
:1057500098278927982798878F8380917D03909138
:105760007E039827892798279A87898780917F03C6
:10577000909180039827892798279C878B87ABCFA8
:105780008A81823059F46B817C818D819E810E9457
:10579000F02C86E290E00E949D2D9DCF8FEF8983B3
:1057A0009ACF4C816B818A810E945110982789275A
:1057B00098279E838D838FCFCD80DE80DC24CD24FF
:1057C000DC248A810B81B0E20B9F80011124E0EA86
:1057D0008E9F000D111D11248C8190E0880F991F60
:1057E000080F191F6D2DC80187960E949D2D6C2DE5
:1057F000C8018896D0CF0E94CA0F6DCF80E18A83FE
:105800006ACFFA8289E54BCF0A811B8110270127D5
:1058100010279E012F5F3F4F6901AC80C9018A0D9F
:10582000911D5C01C80189559D4FAC14BD0409F45C
:1058300052CF0935A1E01A0750F40E94792DF601E4
:1058400084830F5F1F4FBFEFCB1ADB0AEBCFD6016C
:1058500014961C92F6CF0A811B811027012710276E
:10586000FE0131965F01CC80C00ED12ED11CC80143
:1058700089559D4F0C151D0509F42DCF0935F1E013
:105880001F0728F4D50114966C910E949D2DBFEF3F
:10589000AB1ABB0A0F5F1F4FEACF0E94BA0F1BCF94
:1058A00084E0ADCF0A811B81102701271027FE015C
:1058B00031966F01AC809F012A0D311D5901C8013D
:1058C0008796CA14DB0409F406CF003832E01307C8
:1058D00058F40E94792DD60114968C930F5F1F4FB8
:1058E000FFEFCF1ADF0AEBCFF6011482F7CF0A8160
:1058F0001B811027012710279E012F5F3F4F590161
:10590000CC80C00ED12ED11CC8018796C016D106FE
:1059100009F4E1CE003832E0130728F4D5011496DB
:105920006C910E949D2DBFEFAB1ABB0A0F5F1F4FFA
:10593000EBCF09BD19BD09B400FEFDCF8091D800A1
:105940008F7D8093D8008091E00082608093E0009A
:105950008091E00081FDFCCF0E94411827CC86E2B7
:1059600090E00E94792D1B821C821D828E83B3CE13
:105970002B30310508F080CDB6CD2B30310508F045
:105980002FCD65CDAA1BBB1B51E107C0AA1FBB1FB2
:10599000A617B70710F0A61BB70B881F991F5A95BB
:1059A000A9F780959095BC01CD01089597FB072E2E
:1059B00016F4009407D077FD09D00E94C22C07FC92
:1059C00005D03EF4909581959F4F0895709561950F
:1059D0007F4F0895EE0FFF1F0590F491E02D09947D
:1059E00069279627692778278727782708958F9230
:1059F0009F92AF92BF92CF92DF92EF92FF92CF939E
:105A0000DF93EC01688179818A819B816115710541
:105A10008105910521F464E279ED8BE597E02DE1B4
:105A200033EF41E050E00E94C12D49015A019B0132
:105A3000AC01A7EAB1E40E94E02D6B017C01ACEE61
:105A4000B4EFA50194010E94EE2DDC01CB018C0D79
:105A50009D1DAE1DBF1DB7FF03C00197A109B04832
:105A600088839983AA83BB839F77DF91CF91FF902F
:105A7000EF90DF90CF90BF90AF909F908F90089560
:105A80000E94F72C089580E091E00E94F72C089581
:105A9000B0E0A0E08093000190930101A093020187
:105AA000B09303010895FB01DC0104C08D910190C6
:105AB000801921F441505040C8F7881B990B089574
:105AC000FB01DC0102C001900D9241505040D8F71B
:105AD0000895DC01CB01FC01F999FECF06C0F2BDAF
